:100000000A128A11D82F0A168A11C9200A128A11D7
:10001000F301F30A01300A168A153B240A128A11E9
:10002000A830F5000130F6000A168A1539230A12A5
:100030008A1183166D080A168A1576230A128A1108
:100040009E30F5000130F6000A168A1539230800A3
:1000500027088039AC002C08B1002708AC002C0719
:10006000AD002D08B700A61B371437080319452823
:10007000370A031D43280030A7000030A6000030D7
:10008000A5000030A400A6174D280030A7000030BE
:10009000A6000030A5000030A4002B088039AC0079
:1000A0002C08B1062B08AC002C07AD002D08B200BF
:1000B000AA1B3214320803196A28320A031D682861
:1000C0000030AB000030AA000030A9000030A800CA
:1000D000AA1772280030AB000030AA000030A90037
:1000E0000030A8003208031D3708031D80280030A7
:1000F000A7000030A6000030A5000030A4000800D2
:100100002408AC002C08F0002A080A168A15DF2201
:100110000A128A117108BD007008BC003C08AC00CE
:10012000AD01AE01AF012F08B6002E08B5002D08B5
:10013000B4002C08B3003D08AC00AD01AE01AF0126
:100140002F08BB002E08BA002D08B9002C08B800F3
:100150002508AC002C08F00029080A168A15DF22B1
:100160000A128A117108BD007008BC003C08AC007E
:10017000AD01AE01AF012C08B3072D080311031820
:10018000013E031DB4072E0803110318013E031D91
:10019000B5072F0803110318013E031DB6073D08DC
:1001A000AC00AD01AE01AF012C08B8072D0803115A
:1001B0000318013E031DB9072E0803110318013E61
:1001C000031DBA072F0803110318013E031DBB07C7
:1001D0002608AC002C08F00028080A168A15DF2231
:1001E0000A128A117108BD007008BC003C08AC00FE
:1001F000AD01AE01AF012C08B3072D0803110318A0
:10020000013E031DB4072E0803110318013E031D10
:10021000B5072F0803110318013E031DB6073D085B
:10022000AC00AD01AE01AF012C08B8072D080311D9
:100230000318013E031DB9072E0803110318013EE0
:10024000031DBA072F0803110318013E031DBB0746
:100250000830AC000310B30DB40DB50DB60DAC0BEA
:100260002A292508AC002C08F00028080A168A154F
:10027000DF220A128A117108BD007008BC003C0818
:10028000AC003D08AD00AE01AF012C08B3072D084E
:1002900003110318013E031DB4072E0803110318B0
:1002A000013E031DB5072F0803110318013E031D6E
:1002B000B6072408AC002C08F00029080A168A1595
:1002C000DF220A128A117108BD007008BC003C08C8
:1002D000AC003D08AD00AE01AF012C08B3072D08FE
:1002E00003110318013E031DB4072E080311031860
:1002F000013E031DB5072F0803110318013E031D1E
:10030000B6070830AC000310B30DB40DB50DB60D33
:10031000AC0B83292408AC002C08F00028080A162E
:100320008A15DF220A128A117108BD007008BC000C
:100330003C08AC003D08AD00AE01AF012C08B3078E
:100340002D0803110318013E031DB4072E080311E5
:100350000318013E031DB5072F0803110318013EC2
:10036000031DB6072508AC002C08F0002A080A1661
:100370008A15DF220A128A117108BD007008BC00BC
:100380003C08AC003D08AD00AE01AF012C08B80739
:100390002D0803110318013E031DB9072E08031190
:1003A0000318013E031DBA072F0803110318013E6D
:1003B000031DBB072608AC002C08F00029080A160C
:1003C0008A15DF220A128A117108BD007008BC006C
:1003D0003C08AC003D08AD00AE01AF012C08B807E9
:1003E0002D0803110318013E031DB9072E08031140
:1003F0000318013E031DBA072F0803110318013E1D
:10040000031DBB072608AC002C08F0002A080A16BA
:100410008A15DF220A128A117108BD007008BC001B
:100420003C08AC003D08AD00AE01AF010830031040
:10043000AC0DAD0DAE0DAF0DFF3E031D172A2C0800
:10044000B8072D0803110318013E031DB9072E0834
:1004500003110318013E031DBA072F0803110318E7
:10046000013E031DBB073608AC00AD01AE01AF0174
:100470002C08B8072D0803110318013E031DB90706
:100480002E0803110318013E031DBA072F0803119C
:100490000318013E031DBB070830AC000310B30D69
:1004A000B40DB50DB60DAC0B4E2A37083207AC00B3
:1004B000AD01AD0D2C08823EBC002D080318013E95
:1004C000FF3EBD00BA1B7F2A0130AC000310B80DFF
:1004D000B90DBA0DBB0DAC0B662AB61B3814013032
:1004E000AC000310B30DB40DB50DB60DAC0B712AF5
:1004F000FF30BC070318BD0AFF30BD07622AB201F6
:10050000B61F982AFF303305AC00FF303405AD002C
:10051000FF303505AE007F303605AF002F082E04C2
:100520002D042C0403193818962A982AB201B20A0D
:1005300032080319CA2A0130B80700300318013005
:10054000B907003003180130BA0700300318013032
:10055000BB073B1CCA2A3808AC003908AD003A0872
:10056000AE003B08AF000130B0002F0DAF0CAE0C59
:10057000AD0CAC0CB00BB52A2F08BB002E08BA008E
:100580002D08B9002C08B8000130BC070318BD0ABB
:100590000030BD073D08803AFF0080307F02031D18
:1005A000D32AFF303C02031CE02A7F30831203135E
:1005B000BB008030BA000030B9000030B800102B0A
:1005C000831203133D08803AFF0080307F02031D31
:1005D000EB2A01303C020318F92A0030831203137E
:1005E000BB000030BA000030B9000030B800B101E3
:1005F000102B831203133C08AC002C08B700FF300B
:10060000B805FF30B9057F30BA050030BB05371893
:10061000BA173708AC0003102C0CAD002D08BB0036
:100620003108AC002C08BB043B08A7003A08A60020
:100630003908A5003808A4000800BD00A130A500B5
:100640002508AE000130A007FF30200784000A16FD
:100650008A110A200A128A11A5002508C200420840
:100660000319D32F253042060319382B4208C82F0F
:10067000AF01B0013D2B3015572B0130A007FF30E3
:10068000200784000A168A110A200A128A11C20061
:10069000A500A6012608003A03194F2B222B250896
:1006A000003A0319D32F663A03193B2B222B003053
:1006B0002F05A50007303005A600250826040319DC
:1006C000C32F0630B1000030B2002E08840083131F
:1006D0000008BE00840A0008BF00840A0008C000A9
:1006E000840A0008C1000430A5002508AE074108AF
:1006F000F3004008F2003F08F1003E08F00000302F
:10070000F7000030F6000030F5000030F4000A1663
:100710008A1534260A128A110318A92B8316410858
:10072000F3004008F2003F08F1003E08F0000A160E
:100730008A1593210A128A1173088316C100720860
:10074000C0007108BF007008BE000330AF04003065
:10075000B0048316B701B8014108F3004008F20065
:100760003F08F1003E08F0000030F7000030F600CE
:100770000030F5000030F4000A168A15F3230A123F
:100780008A110318842C03108316400D410D823EFC
:10079000B700FF3003180030B800FF30B707031868
:1007A000B80AFF30B8070330F0000030F100380815
:1007B000F3003708F2000A168A159D220A128A11E0
:1007C0007108B8007008B7000A30F7000030F80070
:1007D0003808FA003708F9000A168A151D250A128A
:1007E0008A1178088316B8007708B700B81FFE2B67
:1007F000FF30B7070318B80AFF30B8073703FF3ACE
:100800000A128A15D8240A128A1141088316BC00DC
:10081000831240088316BB0083123F088316BA0078
:1008200083123E088316B90041088312A70083167D
:1008300040088312A60083163F088312A500831682
:100840003E088312A40083163C088312AB00831673
:100850003B088312AA0083163A088312A900831664
:1008600039088312A8000A128A1128200A128A1154
:1008700027088316BC00831226088316BB00831248
:1008800025088316BA00831224088316B9003C0891
:10089000F3003B08F2003A08F1003908F0003F305D
:1008A000F7008030F6000030F5000030F4000A1642
:1008B0008A1534260A128A110318652CFF30831614
:1008C000B7070318B80AFF30832C83163C08F300DF
:1008D0003B08F2003A08F1003908F0004130F70017
:1008E0002030F6000030F5000030F4000A168A15BA
:1008F00034260A128A11031C842C01308316B70790
:100900000318B80A0030B80706300A168A113D26C7
:100910000A128A114108D5004008D4003F08D300CC
:100920003E08D200831641088312D900831640087E
:100930008312D80083163F088312D70083163E081F
:100940008312D6000A128A1531200A128A1155081C
:100950008316C100831254088316C0008312530803
:100960008316BF00831252088316BE003808803AEF
:10097000FF0080307F02031DBF2C0A3037020318AE
:10098000012D831603134108F3004008F2003F08CD
:10099000F1003E08F0000030F7000030F6000030B3
:1009A000F5000030F4000A168A15F3230A128A11A2
:1009B00003185F2D831641088312D4008316400864
:1009C0008312D30083163F088312D20083163E0899
:1009D0008312D1000A168A11D4200A128A115408EF
:1009E000530452045104031D5F2D83163808803AC6
:1009F000FF0080307F02031DFF2C02303702031CF2
:100A00005F2D831603133C08F3003B08F2003A08FD
:100A1000F1003908F0004030F7008930F6007030FE
:100A2000F5005F30F4000A168A1534260A128A117E
:100A300003181C2DF7301D2DF8308316B707031847
:100A4000B80AFF30B80737080A128A15D8240A12E4
:100A50008A1141088316BC00831240088316BB002C
:100A600083123F088316BA0083123E088316B9002A
:100A70004108F3004008F2003F08F1003E08F00092
:100A80003C08F7003B08F6003A08F5003908F40086
:100A90000A168A113F210A128A1173088316B600BA
:100AA0007208B5007108B4007008B3000030C100CE
:100AB0000030C0000030BF000030BE00C12D8316E2
:100AC000031341088312D400831640088312D30015
:100AD00083163F088312D20083163E088312D1008A
:100AE0000A168A11D4200A128A1154088316B600F5
:100AF000831253088316B500831252088316B4007C
:100B0000831251088316B3003608F3003508F2004B
:100B10003408F1003308F00000300A168A155D270A
:100B20000A128A1173088312E9007208E80071083A
:100B3000E7007008E600831641088312ED00831673
:100B400040088312EC0083163F088312EB008316E3
:100B50003E088312EA000A168A155E220A128A11DA
:100B600069088316C100831268088316C0008312C7
:100B700067088316BF00831266088316BE00B7019C
:100B8000B801C201C20A4208A50001300310A50D38
:100B9000FF3E031DC62D0310250D693E84000A1675
:100BA0008A110A200A128A11A6000A168A110A203E
:100BB0000A128A11A7000A168A110A200A128A113B
:100BC000A8000A168A110A200A128A11A900290807
:100BD0003602031DF52D28083502031DF52D2708C3
:100BE0003402031DF52D26083302031CFF2D0130AE
:100BF000A5002508C2070A304206031DC32D2F0891
:100C0000033903190E2E2D30A5003D088400250858
:100C1000831380000130A5002508BD070130C20202
:100C2000420A03197F2E4208A50001300310A50DCA
:100C3000FF3E031D162E0310250D693E84000A1683
:100C40008A110A200A128A11F0000A168A110A2053
:100C50000A128A11F1000A168A110A200A128A1150
:100C6000F2000A168A110A200A128A11F3003608C5
:100C7000F7003508F6003408F5003308F4000A16CA
:100C80008A1577250A128A117308BC007208BB0006
:100C90007108BA007008B9000030F3000030F200AB
:100CA0000030F1000A30F0003C08F7003B08F60085
:100CB0003A08F5003908F4000A168A15D1240A12F8
:100CC0008A117308BC007208BB007108BA00700872
:100CD000B9003908303E042E303083160313A500C6
:100CE0003D0884002508831380000130A5002508F5
:100CF000BD07FF30B7070318B80AFF30B807380838
:100D0000803AFF0080307F02031D882E01303702B9
:100D100003186C2E831603133208803AFF008030CC
:100D20007F02031D952E09303102031C9B2E0830D3
:100D3000831603139E2E831603133108A50025087E
:100D4000C2004208A500A6012508B1022608031C1E
:100D5000B203B20242080319B82E2E30A5003D0896
:100D600084002508831380000130A5002508BD07F5
:100D700042080A128A15D8240A128A1141088316D9
:100D8000AD00831240088316AC0083123F0883161F
:100D9000AB0083123E088316AA002D088312AB0015
:100DA00083162C088312AA0083162B088312A9002D
:100DB00083162A088312A800831641088312A7000D
:100DC000831640088312A60083163F088312A500ED
:100DD00083163E088312A4000A128A1128200A12E0
:100DE0008A112708D4002608D3002508D200240839
:100DF000D1000A168A11D4200A128A1154088316C7
:100E0000B600831253088316B50083125208831666
:100E1000B400831251088316B3000130C202420AA3
:100E20000319BE2F4208A50001300310A50DFF3E97
:100E3000031D152F0310250D693E84000A168A1123
:100E40000A200A128A11F0000A168A110A200A12D0
:100E50008A11F1000A168A110A200A128A11F20078
:100E60000A168A110A200A128A11F3003608F700BE
:100E70003508F6003408F5003308F4000A168A1520
:100E800077250A128A117308BC007208BB0071082A
:100E9000BA007008B9000030F3000030F2000030F2
:100EA000F1000A30F0003C08F7003B08F6003A0871
:100EB000F5003908F4000A168A15D1240A128A119D
:100EC0007308BC007208BB007108BA007008B90052
:100ED0003908303EA5003D088400250883138000B2
:100EE0000130A5002508BD074208A5000130031008
:100EF000A50DFF3E031D772F0310250D693E8400CD
:100F00000A168A110A200A128A11F0000A168A119A
:100F10000A200A128A11F1000A168A110A200A12FE
:100F20008A11F2000A168A110A200A128A11F300A5
:100F30003608F7003508F6003408F5003308F400E9
:100F40000A168A15D1240A128A117308B60072088B
:100F5000B5007108B40070080C2F3030A5003D08B2
:100F600084002508831380000130A5002508BD07F3
:100F7000FF30B1070318B20AFF30B207310832045C
:100F80000319222BAD2F2F0803390319222B2D30E3
:100F9000A5003D0884002508831380000130A500CA
:100FA0002508BD07222B3D0884008313800108001B
:100FB0008317CA30FD001930FE00F530FF00B23053
:100FC00084000A168A15C2210A128A1183160A168B
:100FD0008A11C8200A128A11ED0090308400B230C4
:100FE0000A168A158B210A128A118313E5308400B0
:100FF000ED300A168A158B2183010A168A15C72E31
:10100000F100F0013A30710203180C2830307102FF
:10101000031C0C28F001F00A700C0800F4000830E2
:10102000F1007108F500F6017408F10007300310B3
:10103000F10CFF3E031D17287608F20072077104B9
:10104000F3007308F6000310F40D70087602031C19
:101050002B287008F6020130F502031D14287608CB
:10106000080055088039DA005A08E2005508DA000D
:101070005A07DB005B08E400D41B641464080319FE
:101080004F28640A031D4C280030D5000030D400DE
:101090000030D3000030D200D417D50157280030DB
:1010A000D5000030D4000030D3000030D200590801
:1010B0008039DA005A08E30063086206031D6217EC
:1010C0005908DA005A07DB005B08E300D81B6314F9
:1010D000630803197928630A031D76280030D900B4
:1010E0000030D8000030D7000030D600D817D90122
:1010F00081280030D9000030D8000030D7000030FF
:10110000D600640863020318C728621F8B2880304A
:10111000DA005A08E2066408DA005A08E5006308B3
:10112000DA005A08E4006508DA005A08E3005208B9
:10113000DA005A08E5005608DA005A08D2006508B5
:10114000DA005A08D6005308DA005A08E5005708B2
:10115000DA005A08D3006508DA005A08D7005408A4
:10116000DA005A08E5005808DA005A08D400650881
:10117000DA005A08D8005508DA005A08E50059087C
:10118000DA005A08D5006508DA005A08D900E501E6
:101190006308DA00DB015B08DD0064085A02DC004A
:1011A000031CDD035D08803AFF0080307F02031DD1
:1011B000DB281A305C02031C142983120313550820
:1011C0005404530452040319E7280130E82800307E
:1011D000DA005A08E5000030D5000030D4000030B5
:1011E000D3000030D2006308DA005A08E4001A295C
:1011F000651C03296508DA0003105A0C0138DB006E
:101200005B08E50005290310E50C5218E5170130CD
:10121000DA00550DD50CD40CD30CD20CDA0B0929FD
:101220000130DA005A08E4078312031363086402EA
:10123000031CF828621B5B296408031D2829003061
:10124000D5000030D4000030D3000030D2000800B8
:101250005608D207570803110318013E031DD30790
:10126000580803110318013E031DD4075908031140
:101270000318013E031DD507551CFD29651C49298E
:101280006508DA0003105A0C0138DB005B08E50042
:101290004B290310E50C5218E5170130DA00550D03
:1012A000D50CD40CD30CD20CDA0B4F290130DA0058
:1012B0005A08E407FD295508803AFF005908803A8A
:1012C0007F02031D6D2958085402031D6D2957081C
:1012D0005302031D6D29560852020318C529FF3019
:1012E000DA00FF30DB00FF30DC00FF30DD005608A5
:1012F000DE005708DF005808E0005908E1005208F6
:10130000DE025308031C530F86298729DF02540885
:10131000031C540F8C298D29E0025508031C550F1E
:1013200092299329E1025E08DA075F0803185F0F2C
:101330009A299B29DB0760080318600FA029A129BF
:10134000DC0761080318610ADD075D08D5005C0849
:10135000D4005B08D3005A08D2008030DA005A0863
:10136000E206E509E50A6508031DD3290130D20725
:10137000003003180130D307003003180130D407C0
:10138000003003180130D507D3295608D202570878
:10139000031C570FD3025808031C580FD4025908D6
:1013A000031C590FD5025508540453045204031D5D
:1013B000FB296508031DFB290030D5000030D4004F
:1013C0000030D3000030D20008000130DA000310F2
:1013D000D20DD30DD40DD50DDA0BE729E51B521430
:1013E000651CF4290314F5290310E50D640803199D
:1013F000FB290130E402D41FE529E301E51F082A97
:1014000065087F3903195218062A082AE301E30AFE
:10141000630803193B2A0130D2070030031801305A
:10142000D307003003180130D4070030031801300F
:10143000D507551C3B2A5208DA005308DB00540834
:10144000DC005508DD000130DE005D0DDD0CDC0C3C
:10145000DB0CDA0CDE0B252A5D08D5005C08D40015
:101460005B08D3005A08D200640A03193B2A0130F2
:10147000DA005A08E407640A031D6408031D4B2AB6
:101480000030D5000030D4000030D3000030D2004E
:1014900064080319E201641C4F2AD417532A7F30D1
:1014A000DA005A08D4056408DA0003105A0CDB008D
:1014B0005B08D500E21F0800D5170800CD003E08E4
:1014C0000319692A4D08C2003E08840042088313AC
:1014D00080004D08840083170008C6000A168A158C
:1014E000CF210A128A15031C7A2A0130C200420851
:1014F000CD07692AC7012D304606031D822AC70180
:10150000C70A862A2B304606031D8A2A0130C200EC
:101510004208CD07C6010030CC000030CB000030BF
:10152000CA000030C900C801A02A4D0884002E302E
:101530000006031DA22A47160130C2004208CD074B
:10154000471E952A4D08840000080A128A150020BB
:101550000A128A15031CFC2AC7140930460603190F
:10156000F52A471EB72AFF30C2004208C8070130DB
:10157000C2004208C6070030F3000030F20000301D
:10158000F1000A30F0004C08F7004B08F6004A085A
:10159000F5004908F4000A168A15B4230A128A15C0
:1015A0007308CC007208CB007108CA007008C9002B
:1015B0004D0884000008D03EC200C301C401C5012B
:1015C0004208C907430803110318013E031DCA0757
:1015D000440803110318013E031DCB0745080311FE
:1015E0000318013E031DCC079C2A471A9C2A013090
:1015F000C2004208C8079C2AC6014D088400653015
:1016000000060319092B4D08840045300006031D10
:10161000792B0130C2004208CD074D0884002D30DF
:101620000006031D152BC715212B4D0884002B30F8
:1016300000060319212B4D08840030300006031DDD
:10164000262B0130C2004208CD071B2B4D08840019
:1016500000080A128A1500200A128A15031C752B2D
:101660004D0884000008D03EC2004208C600013088
:10167000C2004208CD074D08840000080A128A15EE
:1016800000200A128A15031C752B4D0884000A30AD
:10169000C2004208F00046080A168A159C210A1268
:1016A0008A150007D03EC3004308C6000130C200BF
:1016B0004208CD074D08840000080A128A15002050
:1016C0000A128A15031C752B4D0884000A30C200CB
:1016D0004208F00046080A168A159C210A128A154B
:1016E0000007D03EC3004308C600C71D792BC609BA
:1016F000C60A4608C2004208C8073E08031DC71CA8
:10170000882B4D08C2003E088400420883138000E5
:101710004C08F3004B08F2004A08F1004908F000B9
:1017200001300A168A155D270A128A15730883127A
:10173000CC007208CB007108CA007008C9004C08C0
:10174000F3004B08F2004A08F1004908F0000030AD
:10175000F7000030F6000030F5000030F4000A1603
:101760008A15F3230A128A15031CC02B003083123A
:10177000C1000030C0000030BF000030BE000800D3
:101780008312C81F3C2CC809C80A4808803A763E14
:10179000031C0D2C5030F3001530F2000230F10024
:1017A000F930F0004C08F7004B08F6004A08F50045
:1017B0004908F4000A168A1195240A128A1573083A
:1017C000CC007208CB007108CA007008C900F6305E
:1017D000C2004208C807C52B4130F3002030F20098
:1017E0000030F1000030F0004C08F7004B08F60024
:1017F0004A08F5004908F4000A168A1195240A12CD
:101800008A157308CC007208CB007108CA007008F2
:10181000C900FF30C2004208C8074808031DEC2B6E
:101820004C08F3004B08F2004A08F1004908F000A8
:101830000030F7008030F6000030F5000030F40092
:101840000A168A1534260A128A150318B82C831230
:10185000471C332C8030C1008030C0000030BF00F6
:101860000030BE0008000030C1008030C0000030F1
:10187000BF000030BE0008004808803A7F3E0318D1
:10188000632CB82C5030A7001530A6000230A500FC
:10189000F930A4004C08AB004B08AA004A08A90084
:1018A0004908A8000A128A1128200A128A15270856
:1018B000CC002608CB002508CA002408C900F63051
:1018C000C2004208C8070A304802031C892C422C77
:1018D0004130A7002030A6000030A5000030A40051
:1018E0004C08AB004B08AA004A08A9004908A80008
:1018F0000A128A1128200A128A152708CC00260805
:10190000CB002508CA002408C900FF30C2004208E5
:10191000C8074808031D682C7F30F3007F30F200B1
:10192000FF30F100FF30F0004C08F7004B08F600E4
:101930004A08F5004908F4000A168A1534260A12E6
:101940008A150318B82C8312471CAF2C8030C100B5
:101950008030C0000030BF000030BE000800003002
:10196000C1008030C0000030BF000030BE00080061
:101970008312471CCF2C4C08F3004B08F2004A0896
:10198000F1004908F0000A168A15932173088312A2
:10199000CC007208CB007108CA007008C9004C085E
:1019A000C1004B08C0004A08BF004908BE0008003B
:1019B0008312D000D01F6F2ED009D00A5008803A71
:1019C000123E031CBF2D0A30F7000030F80050080B
:1019D000F200F301F21BF3036430F0000030F10079
:1019E0000A168A1586240A128A157108FA007008E8
:1019F000F9000A168A151D250A128A157708C200F1
:101A000001300310C20DFF3E031D012D0310420DD6
:101A1000593E84000A168A110A200A128A15C30048
:101A20000A168A110A200A128A15C4000A168A1197
:101A30000A200A128A15C5000A168A110A200A12FB
:101A40008A15C6004608A7004508A6004408A50058
:101A50004308A4006430F7000030F8005008F90093
:101A6000FA01F91BFA030A168A151D250A128A15AE
:101A70007708C70001300310C70DFF3E031D3B2D43
:101A80000310470D7D3E84000A168A110A200A12AF
:101A90008A15C8000A168A110A200A128A15C90076
:101AA0000A168A110A200A128A15CA000A168A1111
:101AB0000A200A128A15CB004B08AB004A08AA007C
:101AC0004908A9004808A8000A128A1128200A1209
:101AD0008A152708CF002608CE002508CD00240847
:101AE000CC000A30F0000030F1005008F200F301A1
:101AF000F21BF3030A168A1586240A128A15700847
:101B0000C20001300310C20DFF3E031D822D0310E1
:101B1000420D353E84000A168A110A200A128A15DF
:101B2000C3000A168A110A200A128A15C4000A166E
:101B30008A110A200A128A15C5000A168A110A207B
:101B40000A128A15C6004608A7004508A6004408E0
:101B5000A5004308A4004F08AB004E08AA004D089A
:101B6000A9004C08A8000A128A1128202708C100E1
:101B70002608C0002508BF002408BE000800500841
:101B8000803A753E031C442E0A30F0000030F1000C
:101B90005008F200F301F21BF3030A168A1586249B
:101BA0000A128A157008C20001300310C20DFF3EF0
:101BB000031DD52D0310420D353E84000A168A11EF
:101BC0000A200A128A15C3000A168A110A200A126C
:101BD0008A15C4000A168A110A200A128A15C5003D
:101BE0000A168A110A200A128A15C6004608A7009A
:101BF0004508A6004408A5004308A4000A30F700E1
:101C00000030F8005008F900FA01F91BFA030A162F
:101C10008A151D250A128A157708C700013003109E
:101C2000C70DFF3E031D0F2E0310470D593E8400C4
:101C30000A168A110A200A128A15C8000A168A1181
:101C40000A200A128A15C9000A168A110A200A12E5
:101C50008A15CA000A168A110A200A128A15CB00B0
:101C60004B08AB004A08AA004908A9004808A80088
:101C70000A128A1128202708C1002608C00025085A
:101C8000BF002408BE0008005008C2000130031045
:101C9000C20DFF3E031D472E0310420D353E84004A
:101CA0000A168A110A200A128A15C3000A168A1116
:101CB0000A200A128A15C4000A168A110A200A127A
:101CC0008A15C5000A168A110A20C6004608C100F6
:101CD0004508C0004408BF004308BE000800500883
:101CE000803A123E031C502F0A30F7000030F800F3
:101CF0005008F200F301F21BF3036430F0000030EF
:101D0000F1000A168A1586240A128A157108FA004B
:101D10007008F9000A168A151D250A128A15770817
:101D2000C20001300310C20DFF3E031D922E0310AE
:101D3000420D253E84000A168A110A200A128A15CD
:101D4000C3000A168A110A200A128A15C4000A164C
:101D50008A110A200A128A15C5000A168A110A2059
:101D60000A128A15C6004608A7004508A6004408BE
:101D7000A5004308A4006430F7000030F8005008C4
:101D8000F900FA01F91BFA030A168A151D250A1231
:101D90008A157708C70001300310C70DFF3E031DE9
:101DA000CC2E0310470D493E84000A168A110A20E2
:101DB0000A128A15C8000A168A110A200A128A1500
:101DC000C9000A168A110A200A128A15CA000A16C0
:101DD0008A110A200A128A15CB004B08AB004A0868
:101DE000AA004908A9004808A8000A128A11282058
:101DF0000A128A152708CF002608CE002508CD0034
:101E00002408CC000A30F0000030F1005008F20045
:101E1000F301F21BF3030A168A1586240A128A15A7
:101E20007008C20001300310C20DFF3E031D132FC6
:101E30000310420D013E84000A168A110A200A127C
:101E40008A15C3000A168A110A200A128A15C400CC
:101E50000A168A110A200A128A15C5000A168A1162
:101E60000A200A128A15C6004608A7004508A600DF
:101E70004408A5004308A4004F08AB004E08AA0080
:101E80004D08A9004C08A8000A128A11282027082A
:101E9000C1002608C0002508BF002408BE000800B5
:101EA0005008803A753E031CD52F0A30F0000030F0
:101EB000F1005008F200F301F21BF3030A168A1531
:101EC00086240A128A157008C20001300310C20D60
:101ED000FF3E031D662F0310420D013E84000A16CB
:101EE0008A110A200A128A15C3000A168A110A20CA
:101EF0000A128A15C4000A168A110A200A128A15C3
:101F0000C5000A168A110A200A128A15C600460858
:101F1000A7004508A6004408A5004308A4000A300D
:101F2000F7000030F8005008F900FA01F91BFA0335
:101F30000A168A151D250A128A157708C70001306E
:101F40000310C70DFF3E031DA02F0310470D253EB4
:101F500084000A168A110A200A128A15C8000A1675
:101F60008A110A200A128A15C9000A168A110A2043
:101F70000A128A15CA000A168A110A200A128A153C
:101F8000CB004B08AB004A08AA004908A900480842
:101F9000A8000A128A1128202708C1002608C000BC
:101FA0002508BF002408BE0008005008C200013008
:101FB0000310C20DFF3E031DD82F0310420D013E3A
:101FC00084000A168A110A200A128A15C3000A160A
:101FD0008A110A200A128A15C4000A168A110A20D8
:101FE0000A128A15C5000A168A110A20C600460878
:101FF000C1004508C0004408BF004308BE000800F7
:10200000FF1B0A2883137F1883170008840A03190B
:10201000FF0A080010308A000408840A820700348E
:102020000034003480343F340034003420344134F0
:1020300000340034C8344234003400347A34443438
:10204000003440341C34463400345034C3344734F4
:1020500000342434743449348034963418344B3486
:102060002034BC34BE344C3428346B346E344E349B
:10207000F934023415345034EC347834AD346034EF
:10208000CA34F234493471340034003480343F347B
:10209000CD34CC34CC343D340A34D73423343C34BE
:1020A0006F34123483343A341734B734D13438347B
:1020B000AC34C53427343734BD3437348634353402
:1020C0009534BF34D63433347734CC342B34323473
:1020D0005F34703489343034FF34E634DB342E34EA
:1020E0000834E5343C341E3460344234A2340D34B8
:1020F00001340034003400340A3400340034003435
:102100006434003400340034E834033400340034E0
:102110001034273400340034A034863401340034C1
:10212000403442340F3400348034963498340034D0
:102130000034E134F53405340034CA349A343B3485
:102140006134643465346C342034733461347934EC
:1021500073342034683465346C346C346F34203418
:102160000034003441344E345334573445345234FF
:1021700020343D3420340034003463346C3465340E
:102180006134723420340034003425346634003431
:10219000203400300A168A15E1210A168A1101300E
:1021A0000A168A15E12108000310530D540DD500BD
:1021B0005508FD007D08031DE6280030D4000030DE
:1021C000D3000030D2000030D10008005108D50003
:1021D0005208D6005308D7005408D8001F30031007
:1021E000D80CD70CD60CD50CFF3E031DEF28550894
:1021F000D9005908FC00D317FF30D105FF30D205B4
:10220000FF30D3050030D4059630FD02FD1F1D2997
:102210007D08803A973E031CDD2801300310D40C62
:10222000D30CD20CD10CFF3E031D0E290130D5007A
:102230005508FD07031930290D2920307D020318A8
:10224000DD287D08031930290130D5000310D10D98
:10225000D20DD30DD40DD50B26290130FD02212935
:102260007C0803190800D109D209D309D409D10A7D
:102270000319D20A0319D30A0319D40A0800031058
:10228000720D730DF80078088312A5002508031D50
:1022900052290030F3000030F2000030F10000302D
:1022A000F00008000310760D770DF8007808A40000
:1022B000240803194929F217FF30F005FF30F10512
:1022C000FF30F2050030F305F617FF30F405FF305C
:1022D000F505FF30F6050030F7050030A3000030AB
:1022E000A2000030A1000030A0007F30A502A03085
:1022F0002407F8007808A5022030F8007808A40028
:102300000130F8000310A00DA10DA20DA30DF80BD4
:10231000822977087302031D972976087202031D2C
:10232000972975087102031D972974087002031C10
:10233000A8297408F0027508031C750FF1027608CD
:10234000031C760FF2027708031C770FF3022014A8
:102350000130F8000310F00DF10DF20DF30DF80B44
:10236000AA290130A402031D8029A51FCC29250814
:10237000803A9F3E031C492901300310A30CA20C94
:10238000A10CA00CFF3E031DBD290130F800780808
:10239000A5070319DF29BC29203025020318492984
:1023A00025080319DF290130F8000310A00DA10D45
:1023B000A20DA30DF80BD5290130A502D0292308C1
:1023C000F3002208F2002108F1002008F0000800C4
:1023D0007008F8007108F9007208FA000310790D0E
:1023E0007A0DFB007B0883120313A5002508031D4B
:1023F000022A0030F3000030F2000030F10000301B
:10240000F00008007408F8007508F9007608FA0072
:102410000310790D7A0DFB007B08A4002408031932
:10242000F929F117FF30F005FF30F1050030F20512
:10243000F517FF30F405FF30F5050030F6050030E4
:10244000A3000030A2000030A1000030A0007F30C7
:10245000A50298302407F8007808A5021830F80083
:102460007808A4000130F8000310A00DA10DA20D02
:10247000A30DF80B342A76087202031D452A75084D
:102480007102031D452A74087002031C522A740845
:10249000F0027508031C750FF1027608031C760A1A
:1024A000F202201401300310F00DF10DF20DFF3E89
:1024B000031D532A0130A402031D322AA51F752AC9
:1024C0002508803A973E031CF92901300310A30C1C
:1024D000A20CA10CA00CFF3E031D662A0130F800DF
:1024E0007808A5070319882A652A183025020318D9
:1024F000F92925080319882A0130F8000310A00DD6
:10250000A10DA20DA30DF80B7E2A0130A502792A98
:102510002308F3002208F2002108F1002008F0004F
:102520000800DD002B305D06031DA12A5D08DA00DE
:102530005A08ED000130E9070318EA0A0030EA07FB
:10254000672B2D305D060319962A2A305D06031984
:10255000962A2F305D060319962A3D305D06031D2D
:102560000B2B3D300A168A1576230A168A11A830DD
:102570000A168A15AD210A168A1151088316E80039
:10258000831250088316E70083124F088316E60073
:1025900083124E088316E5009E300A168A15AD2177
:1025A0000A168A115108831603179D00831203131C
:1025B0005008831603179C00831203134F088316D9
:1025C00003179B00831203134E08831603179A0008
:1025D00003136808C6006708C5006608C4006508DC
:1025E000C30003171D080313CA0003171C080313B5
:1025F000C90003171B080313C80003171A080313A5
:10260000C7006D08DA005A08CB000A168A116B233E
:102610000A168A11672B63305D06031D3E2B0A16CE
:102620008A11C9200A168A11F301F30A01300A1629
:102630008A153B240A168A11AE30F5008030F60068
:102640000A168A1539230A168A11033083160313D2
:10265000DC008A30DB005530DA00DA0B2D2BDB0B87
:102660002D2BDC0B2D2B0A168A11C9200A168A1174
:102670000A168A157C220A168A11672B69086A04D1
:10268000031D4C2BDD30DA005A08F0000130F10058
:102690000030F200A830622B6A08803AFF008030D8
:1026A0007F02031D552B01306902031C672BDD30AF
:1026B00083160313DA005A08F0000130F1000030ED
:1026C000F2009E300A168A1502230A168A110A128F
:1026D0008A11032008000030D9000030D8000030F3
:1026E000D7000030D600CC3084000A30FF008313BE
:1026F0008001840AFF0B772B372C83164A0883123C
:10270000D500831649088312D40083164808831223
:10271000D300831647088312D2008316460883121B
:10272000D900831645088312D80083164408831203
:10273000D700831643088312D6000A128A15312067
:102740000A168A1155088316D90083125408831675
:10275000D800831253088316D70083125208152C11
:1027600083164A088312E900831649088312E80099
:10277000831648088312E700831647088312E60091
:10278000831646088312ED00831645088312EC0079
:10279000831644088312EB00831643088312EA0071
:1027A0000A168A155E220A168A1169088316D9004C
:1027B000831268088316D800831267088316D7002F
:1027C00083126608152C83164A088312A700831605
:1027D00049088312A600831648088312A5008316B1
:1027E00047088312A400831646088312AB008316A1
:1027F00045088312AA00831644088312A900831691
:1028000043088312A8000A128A1128200A168A1186
:1028100027088316D900831226088316D80083124E
:1028200025088316D700831224088316352C8316B7
:102830004A08F3004908F2004808F1004708F00090
:102840004608F7004508F6004408F5004308F40080
:102850000A168A1195240A168A1173088316D9005C
:102860007208D8007108D7007008D6004E2C4B08AB
:102870008312EE00EF016F08003A0319402C4E2C32
:102880006E082A3A0319E32B013A03197D2B063A05
:102890000319B02B023A0319172C4E2C0A168A156D
:1028A0007C220A168A11B6308312EE006E08831657
:1028B000A0005908A4005808A3005708A200560811
:1028C000A100CC300A128A111D230A168A11CC30BD
:1028D0008312EE006E08F000A8300A168A1527222F
:1028E0000A168A11F301F30A01300A168A153B24ED
:1028F0000A168A11A330F5008030F6000A168A15F0
:1029000039230A168A110230EE006E08F3000130F6
:102910000A168A153B240A168A11CC30F5000030BD
:10292000F6000A168A153923080077088039F8005E
:1029300078088312A4007708F8007807F90079086E
:10294000AB00F61B2B142B080319B42C2B0A031D08
:10295000B12C0030F7000030F6000030F5000030F8
:10296000F400F617F701BC2C0030F7000030F60039
:102970000030F5000030F40073088039F800780862
:10298000A4067308F8007807F9007908AC00F21B78
:102990002C142C080319DA2C2C0A031DD72C003018
:1029A000F3000030F2000030F1000030F000F217C8
:1029B000F301E22C0030F3000030F2000030F100AF
:1029C0000030F0007308720471047004031D012DBF
:1029D0000030F7000030F6000030F5000030F40061
:1029E0008030F6047F30F7042408F8007808F704F4
:1029F0007708F3007608F2007508F1007408F0001B
:102A000008002B08031D0D2D0030F3000030F200EC
:102A10000030F1000030F00008002B08F800F90148
:102A20007908FB002C087802FA00031CFB037A08E3
:102A30007F3EA5007B080318013E003EA6007708F4
:102A4000A3007608A2007508A1007408A000003059
:102A5000F7000030F6000030F5000030F4000030E0
:102A6000AA000030A9000030A8000030A700AC0187
:102A70001A302C020318862D2C0803195C2D013006
:102A8000F8000310A00DA10DA20DA30DF80B412D10
:102A90000130F8000310F40DF50DF60DF70DF80BED
:102AA0004A2DAA1B74140130F8000310A70DA80DBD
:102AB000A90DAA0DF80B552D73082302031D6A2DCD
:102AC00072082202031D6A2D71082102031D6A2D5E
:102AD00070082002031C812D2A177008A0027108BB
:102AE000031C710F742D752DA1027208031C720F47
:102AF0007A2D7B2DA2027308031C730F802D812D6C
:102B0000A3020130F8007808AC07382D230822040E
:102B100021042004031D2714F61BA92D0130F80001
:102B20000310F40DF50DF60DF70DF80B902DAA1B03
:102B300074140130F8000310A70DA80DA90DAA0DFB
:102B4000F80B9B2DFF30A5070318A60AFF30A60738
:102B50008C2DAC01AA1FC22DFF302705F800FF30D5
:102B60002805F900FF302905FA007F302A05FB000F
:102B70007B087A047904780403197418C02DC22DD7
:102B8000AC01AC0A2C080319F42D0130F407003015
:102B900003180130F507003003180130F607003044
:102BA00003180130F707771CF42D7408F800750836
:102BB000F9007608FA007708FB000130FC007B0D75
:102BC000FB0CFA0CF90CF80CFC0BDF2D7B08F70062
:102BD0007A08F6007908F5007808F4000130A507B6
:102BE0000318A60A0030A6072608803AFF008030A6
:102BF0007F02031DFD2DFF302502031C0D2EFF302B
:102C000083120313A5000030A6000030F700003047
:102C1000F6000030F5000030F4008312031326089C
:102C2000803AFF0080307F02031D182E01302502FC
:102C30000318272E83120313A501A6010030F70005
:102C40000030F6000030F5000030F400A4018312DB
:102C500003132508F8007808AB002B1C312EF6175B
:102C6000352E7F30F8007808F6052B08F8000310A1
:102C7000780CF9007908F700F42C8312D1006E303B
:102C80005102031C292F3F30A7000030A60000305E
:102C9000A5000030A4006430C2004208F7005108CB
:102CA0000A168A15BE220A168A11C30001300310C3
:102CB000C30DFF3E031D572E0310430D7D3E8400C0
:102CC0000A168A110A200A168A11C4000A168A11E5
:102CD0000A200A168A11C5000A168A110A200A1645
:102CE0008A11C6000A168A110A200A168A11C7001C
:102CF0004708AB004608AA004508A9004408A800F8
:102D00000A128A1128200A168A112708D0002608DC
:102D1000CF002508CE002408CD000A30C2004208AA
:102D2000F7006430C3004308F00051080A128A1506
:102D30000E200A168A110A168A15BE220A168A1150
:102D4000C40001300310C40DFF3E031DA22E03106A
:102D5000440D593E84000A168A110A200A168A1167
:102D6000C5000A168A110A200A168A11C6000A1618
:102D70008A110A200A168A11C7000A168A110A2027
:102D80000A168A11C8004808A7004708A600460886
:102D9000A5004508A4005008AB004F08AA004E0843
:102DA000A9004D08A8000A128A1128200A168A11C3
:102DB0002708CC002608CB002508CA002408C90033
:102DC0000A30C2004208F00051080A128A150E208B
:102DD0000A168A11C30001300310C30DFF3E031D04
:102DE000EC2E0310430D353E84000A168A110A208A
:102DF0000A168A11C4000A168A110A200A168A11B4
:102E0000C5000A168A110A200A168A11C6000A1677
:102E10008A110A200A168A11C7004708A700460827
:102E2000A6004508A5004408A4004C08AB004B08C8
:102E3000AA004A08A9004908A8000A128A112820F5
:102E40002708C1002608C0002508BF002408BE00CE
:102E500008000B305102031CC02F3F30A700003088
:102E6000A6000030A5000030A4000A30C2004208CD
:102E7000F70051080A168A15BE220A168A11C300E5
:102E800001300310C30DFF3E031D412F0310430DFE
:102E9000593E84000A168A110A200A168A11C400B3
:102EA0000A168A110A200A168A11C5000A168A1102
:102EB0000A200A168A11C6000A168A110A200A1662
:102EC0008A11C7004708AB004608AA004508A900B8
:102ED0004408A8000A128A1128200A168A11270815
:102EE000D0002608CF002508CE002408CD000A30E7
:102EF000C2004208F00051080A128A150E200A1674
:102F00008A11C30001300310C30DFF3E031D832F40
:102F10000310430D353E84000A168A110A200A1652
:102F20008A11C4000A168A110A200A168A11C500DD
:102F30000A168A110A200A168A11C6000A168A1170
:102F40000A200A168A11C7004708A7004608A600EB
:102F50004508A5004408A4005008AB004F08AA008B
:102F60004E08A9004D08A8000A128A112820270837
:102F7000C1002608C0002508BF002408BE000800C4
:102F80003F30A7000030A6000030A5000030A400AC
:102F90005108C20001300310C20DFF3E031DCB2FAC
:102FA0000310420D353E84000A168A110A200A16C3
:102FB0008A11C3000A168A110A200A168A11C4004F
:102FC0000A168A110A200A168A11C5000A168A11E1
:102FD0000A200A168A11C6004608AB004508AA0056
:102FE0004408A9004308A8000A128A1128202708CB
:102FF000C1002608C0002508BF002408BE00080044
:1033160064008001840A04060319003404068C291B
:103326007308720471047004031908008030F306F0
:103336000800F300F201731CA4297008F10071085B
:10334600F2070310F00D0310F30C7308031D9E29FA
:103356007208080083120313D200BE0152080A1233
:103366008A155E224108D1004008D0003F08CF00F0
:103376003E08CE0008007E088A007F088200BE2133
:103386000A168A158000840A04087D06031900348B
:10339600FF0A0319FE0AC229F100F001F00A2030E3
:1033A60071060319DF290E3071020318DE29093070
:1033B60071020318DF29F001700C0800F200831275
:1033C6000313071272080A168A150D220A168A15A1
:1033D6008716A630F100F10BEE29000083120313C5
:1033E600871208003734383439342F3434343534BE
:1033F60036342A343134323433342D346334303471
:103406003D342B34103420344034803401340234BB
:1034160004340834F000701C142A831203130714B2
:10342600172A831203130710F01C1B2A87141C2A61
:103436008710701D202A0715212A0711F01D252A3D
:103446008715080087110800F2007208F10071085C
:10345600F3007008840083130008F10073088400E9
:103466007108831780000008031908000130F10075
:103476007108F3070130F1007108F0072C2AF600F5
:103486007608F4007408F5000130F2020030031CDF
:10349600F303F302720A0319730A0319080070088A
:1034A600F400750884007408831780000130F40066
:1034B6007408F507472A8030E9066D08D5006C08C0
:1034C600D4006B08D3006A08D2006908D9006808DE
:1034D600D8006708D7006608D6000A128A15312078
:1034E6005508E9005408E8005308E7005208E600CA
:1034F60008000030F000F1000430F2000030F30064
:10350600A8300A168A1542220A168A150030F000DB
:10351600F1000430F2000030F3009E300A168A15DE
:1035260042222030F700770883160313ED00E901E5
:10353600EA010800F401F501701CA72A7208F407D5
:103546000318F50A7308F50701300310F20DF30DA1
:10355600FF3E031DA82A01300310F10CF00CFF3EBC
:10356600031DAF2A70087104031D9F2A7508F10018
:103576007408F0000800F900FB0177080319DD2A3A
:10358600FA01FA0AF71BCE2A0310F70D0130F800EC
:103596007808FA07C52A0310FB0D77087902031C81
:1035A600D82A7708F9027B140310F70C0130FA02C7
:1035B600031DCE2A7B080800F800F401F501700807
:1035C600F200F3017208F6007308F700781CF12A7E
:1035D6007608F4070318F50A7708F5070130031093
:1035E600F60DF70DFF3E031DF22A0310F80C7808BE
:1035F600031DE92A7508F1007408F0000800F400BC
:103606007408F3007308F500750884008317000832
:1036160003192D2B0130F3007308F507072B7008EB
:10362600840083130008F300750884007308831769
:10363600800000080319312B0130F1020030031C11
:10364600F203F2020130F3007308F5070130F300CC
:103656007308F00771087204031D122B71087204B7
:10366600031D08007508840080010800FA01FB01AB
:103676007A087507F8007608F7000318F70AFA1BA8
:10368600F7037708F900790883120313FF00780817
:1036960084000A168A1100200A168A15003A0319B0
:1036A60008007A087507F8007608F7000318F70A85
:1036B600FA1BF7037708F900790883120313FF0052
:1036C600780884000A168A1100200A168A150A1636
:1036D6008A1576230A168A150130FA070318FB0A9B
:1036E6000030FB073B2BF40074080F39F10071081A
:1036F600F2007408F039F1007108F300831207161E
:103706007308F10004300310F10CFF3E031D862BF5
:1037160071080A168A150D220A168A158716A6300A
:10372600F100F10B942B0000831203138712A630CD
:10373600F100F10B9C2B000072080A168A150D2267
:103746000A168A158716A630F100F10BA82B000081
:10375600831203138712A630F100F10BB02B000081
:1037660008000030FC000030FB000030FA0000309A
:10377600F900701CD22B7408F90775080311031899
:10378600013E031DFA07760803110318013E031DC7
:10379600FB07770803110318013E031DFC070130E0
:1037A600F8000310F40DF50DF60DF70DF80BD42BFC
:1037B60001300310F30CF20CF10CF00CFF3E031D6C
:1037C600DC2B7308720471047004031DBC2B7C0887
:1037D600F3007B08F2007A08F1007908F00008008F
:1037E60000307005F80000307105F9008030720570
:1037F600FA007F307305FB007B087A0479047804AD
:10380600031D0D2C0030F3000030F2000030F100F3
:103816000030F00000307405F80000307505F9003E
:1038260080307605FA007F307705FB007B087A0446
:1038360079047804031D272C0030F7000030F600C9
:103846000030F5000030F40077087306031D352CB0
:1038560076087206031D352C75087106031D352C76
:10386600740870060319392C0310080003140800A5
:10387600F6007603031D612C73087F3EF40074087E
:10388600F9007908F40004300310F40CFF3E031D20
:10389600472C7408F5007508F80079080F39F4000C
:1038A6007408F70078080A168A15E1210A168A159F
:1038B60077080A168A15E1210A168A150230760655
:1038C600031D08007308BF3EF4007408F900790868
:1038D600F40004300310F40CFF3E031D6D2C740835
:1038E600F5007508F80079080F39F4007408F70038
:1038F60078080A168A15E1210A168A1577080A1623
:103906008A15E1210800F601F31F902CF209F3094C
:10391600F20A0319F30AF601F60AF11F972CF009C9
:10392600F109F00A0319F10A700871040319C42C8D
:10393600F501F50AF11BAB2C01300310F00DF10D6A
:10394600FF3E031DA02C0130F4007408F5079D2CE2
:1039560071087302031DB12C70087202031CB92C86
:103966007008F2027108031CF303F302013003101E
:10397600F10CF00CFF3E031DBA2C0130F502031DBD
:10398600AB2C76080319CC2CF209F309F20A0319B9
:10399600F30A7308F1007208F00008007308720455
:1039A600710470040319142DF901F90AF31BE92CAB
:1039B6000130F8000310F00DF10DF20DF30DF80BC8
:1039C600DD2C0130F8007808F907D92C7308770246
:1039D600031DF72C72087602031DF72C7108750279
:1039E600031DF72C70087402031C072D7008F402DF
:1039F6007108031C710FF5027208031C720FF602A0
:103A06007308031C730FF70201300310F30CF20C5A
:103A1600F10CF00CFF3E031D082D0130F902031DC9
:103A2600E92C7708F3007608F2007508F1007408AF
:103A3600F00008008312A101F81F282DF709F809E4
:103A4600F70A0319F80AA101A10AFA1F332DF90989
:103A5600FA09F90A0319FA0A0130FB007B08A106E4
:103A6600A201A3017708780403196A2DA001A00A10
:103A7600F81B492D01300310F70DF80DFF3E031D0D
:103A86003E2D0130FB007B08A0073B2D01300310C3
:103A9600A20DA30DFF3E031D4A2D78087A02031DD1
:103AA600562D77087902031C5F2D7708F9027808EE
:103AB600031CFA03FA02221401300310F80CF70C67
:103AC600FF3E031D602D0130A002031D492D210874
:103AD6000319722DA209A309A20A0319A30A23082E
:103AE600F8002208F70008000030FC000030FB0058
:103AF6000030FA000030F900730872047104700493
:103B06000319CC2DFD01FD0AF31B972D0130F8009A
:103B16000310F00DF10DF20DF30DF80B8B2D0130A6
:103B2600F8007808FD07872D0130F8000310F90D1D
:103B3600FA0DFB0DFC0DF80B992D73087702031D8A
:103B4600AE2D72087602031DAE2D71087502031D97
:103B5600AE2D70087402031CBF2D7008F4027108A4
:103B6600031C710FF5027208031C720FF60273082C
:103B7600031C730FF702791401300310F30CF20CD7
:103B8600F10CF00CFF3E031DC02D0130FD02031D9C
:103B9600972D7C08F3007B08F2007A08F10079087B
:103BA600F0000800831687010712871200300A16F4
:103BB6008A150D220A168A152730F400F530F3000F
:103BC600F30BE32DF40BE32DA630F300F30BE92DF5
:103BD600000003300A168A15E1210A168A150730F5
:103BE600F4007D30F300F30BF62DF40BF62D0330C5
:103BF6000A168A15E1210A168A153130F300F30BED
:103C0600022E052E03300A168A15E1210A168A1598
:103C160002300A168A15E1210A168A1502300A169A
:103C26008A15E1210A168A1508300A168A15E12135
:103C36000A168A1500300A168A15E1210A168A150F
:103C46000C300A168A15E1210A168A1500300A1662
:103C56008A15E1210A168A1506300A168A15E12107
:103C6600080000307005F80000307105F90080305A
:103C76007205FA007F307305FB007B087A0479042D
:103C86007804031D4E2E0030F3000030F2000030A1
:103C9600F1000030F00000307405F80000307505C2
:103CA600F90080307605FA007F307705FB007B0847
:103CB6007A0479047804031D682E0030F70000307A
:103CC600F6000030F5000030F400F31F8E2E0030B1
:103CD600F8000030F9000030FA008030FB00700870
:103CE600F8027108031C710F792E7A2EF9027208F8
:103CF600031C720F7F2E802EFA027308031C730FAB
:103D0600852E862EFB027B08F3007A08F2007908DE
:103D1600F1007808F000F71FB42E0030F8000030EC
:103D2600F9000030FA008030FB007408F8027508CC
:103D3600031C750F9F2EA02EF9027608031C760F22
:103D4600A52EA62EFA027708031C770FAB2EAC2EF3
:103D5600FB027B08F7007A08F6007908F500780878
:103D6600F4008030F3068030F70677087302031DEF
:103D7600080076087202031D080075087102031D0B
:103D86000800740870020800F0308316860083125B
:103D960086010A168A15D5250A168A150A168A1163
:103DA600C9200A168A15F301F30A01300A168A1584
:103DB6003B240A168A159130F5008030F6000A1663
:103DC6008A1539230A168A15063083160313E0006E
:103DD6001330DF00AD30DE00DE0BEF2EDF0BEF2EF3
:103DE600E00BEF2E0A168A11C9200A168A158316C9
:103DF6000313E101E20183160313E301E4018316D1
:103E060003136108C63E84008317000883128600E8
:103E1600143083160313DF007930DE00DE0B112F1A
:103E2600DF0B112F831603136308C23E840083172A
:103E36000008831206050319372F83166108DE0072
:103E460002300310DE0DFF3E031D242FB2305E0745
:103E5600DF0063085F07E0006008840000080A16B8
:103E66008A1191220A168A1501308316E307031870
:103E7600E40A0030E4076408803AFF0080307F02DD
:103E8600031D472F04306302031C022F01308316E3
:103E96000313E1070318E20A0030E2076208803ADA
:103EA600FF0080307F02031D5A2F04306102031881
:103EB600FA2EFE2EF8007808031DF31F722F7009E4
:103EC600FA007109FB007209FC007309FD00FA0A89
:103ED6000319FB0A0319FC0A0319FD0A7A2F730852
:103EE600FD007208FC007108FB007008FA007308F8
:103EF600720471047004031D892F0030F300003032
:103F0600F2000030F1000030F00008009630F400B6
:103F16007408F900FE307D050319BA2F0130F4004C
:103F26007408F90701300310FD0CFC0CFB0CFA0CAD
:103F3600FF3E031D962F8D2F0130F4007408F907FC
:103F46000130FA07003003180130FB070030031870
:103F56000130FC07003003180130FD070130031063
:103F6600FD0CFC0CFB0CFA0CFF3E031DB22FFF30C0
:103F76007D050319CE2F9F2F02307902031CD02F07
:103F86000130F9020130F4000310FA0DFB0DFC0DAF
:103F9600FD0DF40BC72FFC1FBF2F7918DA2FFF304A
:103FA600FA05FF30FB057F30FC05FF30FD050310E9
:103FB600F90C7908F400F501F601F7011830031041
:103FC600F40DF50DF60DF70DFF3E031DE22F7408F7
:103FD600FA047508FB047608FC047708FD047808E3
:103FE600031DF31FF72FFD177D08F3007C08F20071
:103FF6007B08F1007A08F0000800FF3FFF3FFF3F13
:02400600FF3F7A
:02400E00713F00
:00000001FF
